{
  "_format": "hh-sol-artifact-1",
  "contractName": "Backend",
  "sourceName": "contracts/BackEnd.sol",
  "abi": [
    {
      "inputs": [
        {
          "components": [
            {
              "internalType": "address",
              "name": "senderAddress",
              "type": "address"
            },
            {
              "internalType": "address",
              "name": "receiverAddress",
              "type": "address"
            },
            {
              "internalType": "bool",
              "name": "action",
              "type": "bool"
            },
            {
              "internalType": "uint256",
              "name": "timestamp",
              "type": "uint256"
            },
            {
              "internalType": "uint256",
              "name": "bankBalance",
              "type": "uint256"
            },
            {
              "internalType": "uint256",
              "name": "amountToMint",
              "type": "uint256"
            },
            {
              "internalType": "bytes",
              "name": "signature",
              "type": "bytes"
            }
          ],
          "internalType": "struct Backend.BackendSigner",
          "name": "whitelist",
          "type": "tuple"
        }
      ],
      "name": "getSigner",
      "outputs": [
        {
          "internalType": "address",
          "name": "",
          "type": "address"
        }
      ],
      "stateMutability": "view",
      "type": "function"
    }
  ],
  "bytecode": "0x608060405234801561001057600080fd5b50610f62806100206000396000f3fe608060405234801561001057600080fd5b506004361061002b5760003560e01c80634bc54eb914610030575b600080fd5b61004a600480360381019061004591906108c3565b610060565b6040516100579190610a4c565b60405180910390f35b600061006b82610072565b9050919050565b60008061007e83610096565b905061008e818460c00151610112565b915050919050565b600061010b7fc321b07044129420c1b0d553e77b81bdf6a1ed776902eea5b6c8df2b2f65ac5f836000015184602001518560400151866060015187608001518860a001516040516020016100f09796959493929190610a67565b60405160208183030381529060405280519060200120610139565b9050919050565b60008060006101218585610153565b9150915061012e816101d6565b819250505092915050565b600061014c610146610527565b83610567565b9050919050565b6000806041835114156101955760008060006020860151925060408601519150606086015160001a90506101898782858561059a565b945094505050506101cf565b6040835114156101c65760008060208501519150604085015190506101bb8683836106a7565b9350935050506101cf565b60006002915091505b9250929050565b60006004811115610210577f4e487b7100000000000000000000000000000000000000000000000000000000600052602160045260246000fd5b816004811115610249577f4e487b7100000000000000000000000000000000000000000000000000000000600052602160045260246000fd5b141561025457610524565b6001600481111561028e577f4e487b7100000000000000000000000000000000000000000000000000000000600052602160045260246000fd5b8160048111156102c7577f4e487b7100000000000000000000000000000000000000000000000000000000600052602160045260246000fd5b1415610308576040517f08c379a00000000000000000000000000000000000000000000000000000000081526004016102ff90610b6e565b60405180910390fd5b60026004811115610342577f4e487b7100000000000000000000000000000000000000000000000000000000600052602160045260246000fd5b81600481111561037b577f4e487b7100000000000000000000000000000000000000000000000000000000600052602160045260246000fd5b14156103bc576040517f08c379a00000000000000000000000000000000000000000000000000000000081526004016103b390610b8e565b60405180910390fd5b600360048111156103f6577f4e487b7100000000000000000000000000000000000000000000000000000000600052602160045260246000fd5b81600481111561042f577f4e487b7100000000000000000000000000000000000000000000000000000000600052602160045260246000fd5b1415610470576040517f08c379a000000000000000000000000000000000000000000000000000000000815260040161046790610bae565b60405180910390fd5b6004808111156104a9577f4e487b7100000000000000000000000000000000000000000000000000000000600052602160045260246000fd5b8160048111156104e2577f4e487b7100000000000000000000000000000000000000000000000000000000600052602160045260246000fd5b1415610523576040517f08c379a000000000000000000000000000000000000000000000000000000000815260040161051a90610bce565b60405180910390fd5b5b50565b60006105627f8b73c3c69bb8fe3d512ecc4cf759cc79239f7b179b0ffacaa9a75d522b39400f610555610706565b61055d610710565b61071a565b905090565b6000828260405160200161057c929190610a15565b60405160208183030381529060405280519060200120905092915050565b6000807f7fffffffffffffffffffffffffffffff5d576e7357a4501ddfe92f46681b20a08360001c11156105d557600060039150915061069e565b601b8560ff16141580156105ed5750601c8560ff1614155b156105ff57600060049150915061069e565b6000600187878787604051600081526020016040526040516106249493929190610b29565b6020604051602081039080840390855afa158015610646573d6000803e3d6000fd5b505050602060405103519050600073ffffffffffffffffffffffffffffffffffffffff168173ffffffffffffffffffffffffffffffffffffffff1614156106955760006001925092505061069e565b80600092509250505b94509492505050565b60008060007f7fffffffffffffffffffffffffffffffffffffffffffffffffffffffffffffff60001b841690506000601b60ff8660001c901c6106ea9190610c60565b90506106f88782888561059a565b935093505050935093915050565b6000600154905090565b6000600254905090565b60008383834630604051602001610735959493929190610ad6565b6040516020818303038152906040528051906020012090509392505050565b600061076761076284610c13565b610bee565b90508281526020810184848401111561077f57600080fd5b61078a848285610d15565b509392505050565b6000813590506107a181610ee7565b92915050565b6000813590506107b681610efe565b92915050565b600082601f8301126107cd57600080fd5b81356107dd848260208601610754565b91505092915050565b600060e082840312156107f857600080fd5b61080260e0610bee565b9050600061081284828501610792565b600083015250602061082684828501610792565b602083015250604061083a848285016107a7565b604083015250606061084e848285016108ae565b6060830152506080610862848285016108ae565b60808301525060a0610876848285016108ae565b60a08301525060c082013567ffffffffffffffff81111561089657600080fd5b6108a2848285016107bc565b60c08301525092915050565b6000813590506108bd81610f15565b92915050565b6000602082840312156108d557600080fd5b600082013567ffffffffffffffff8111156108ef57600080fd5b6108fb848285016107e6565b91505092915050565b61090d81610cb6565b82525050565b61091c81610cc8565b82525050565b61092b81610cd4565b82525050565b61094261093d82610cd4565b610d55565b82525050565b6000610955601883610c44565b915061096082610dce565b602082019050919050565b6000610978601f83610c44565b915061098382610df7565b602082019050919050565b600061099b600283610c55565b91506109a682610e20565b600282019050919050565b60006109be602283610c44565b91506109c982610e49565b604082019050919050565b60006109e1602283610c44565b91506109ec82610e98565b604082019050919050565b610a0081610cfe565b82525050565b610a0f81610d08565b82525050565b6000610a208261098e565b9150610a2c8285610931565b602082019150610a3c8284610931565b6020820191508190509392505050565b6000602082019050610a616000830184610904565b92915050565b600060e082019050610a7c600083018a610922565b610a896020830189610904565b610a966040830188610904565b610aa36060830187610913565b610ab060808301866109f7565b610abd60a08301856109f7565b610aca60c08301846109f7565b98975050505050505050565b600060a082019050610aeb6000830188610922565b610af86020830187610922565b610b056040830186610922565b610b1260608301856109f7565b610b1f6080830184610904565b9695505050505050565b6000608082019050610b3e6000830187610922565b610b4b6020830186610a06565b610b586040830185610922565b610b656060830184610922565b95945050505050565b60006020820190508181036000830152610b8781610948565b9050919050565b60006020820190508181036000830152610ba78161096b565b9050919050565b60006020820190508181036000830152610bc7816109b1565b9050919050565b60006020820190508181036000830152610be7816109d4565b9050919050565b6000610bf8610c09565b9050610c048282610d24565b919050565b6000604051905090565b600067ffffffffffffffff821115610c2e57610c2d610d8e565b5b610c3782610dbd565b9050602081019050919050565b600082825260208201905092915050565b600081905092915050565b6000610c6b82610cfe565b9150610c7683610cfe565b9250827fffffffffffffffffffffffffffffffffffffffffffffffffffffffffffffffff03821115610cab57610caa610d5f565b5b828201905092915050565b6000610cc182610cde565b9050919050565b60008115159050919050565b6000819050919050565b600073ffffffffffffffffffffffffffffffffffffffff82169050919050565b6000819050919050565b600060ff82169050919050565b82818337600083830152505050565b610d2d82610dbd565b810181811067ffffffffffffffff82111715610d4c57610d4b610d8e565b5b80604052505050565b6000819050919050565b7f4e487b7100000000000000000000000000000000000000000000000000000000600052601160045260246000fd5b7f4e487b7100000000000000000000000000000000000000000000000000000000600052604160045260246000fd5b6000601f19601f8301169050919050565b7f45434453413a20696e76616c6964207369676e61747572650000000000000000600082015250565b7f45434453413a20696e76616c6964207369676e6174757265206c656e67746800600082015250565b7f1901000000000000000000000000000000000000000000000000000000000000600082015250565b7f45434453413a20696e76616c6964207369676e6174757265202773272076616c60008201527f7565000000000000000000000000000000000000000000000000000000000000602082015250565b7f45434453413a20696e76616c6964207369676e6174757265202776272076616c60008201527f7565000000000000000000000000000000000000000000000000000000000000602082015250565b610ef081610cb6565b8114610efb57600080fd5b50565b610f0781610cc8565b8114610f1257600080fd5b50565b610f1e81610cfe565b8114610f2957600080fd5b5056fea264697066735822122035503b6ed026d2b13c7c48347119b8efa96d8c5fb6d69f3d8b25c733fa43d54d64736f6c63430008040033",
  "linkReferences": {},
  "deployedLinkReferences": {}
}