{
  "_format": "hh-sol-artifact-1",
  "contractName": "CBS",
  "sourceName": "contracts/CBS.sol",
  "abi": [
    {
      "inputs": [],
      "stateMutability": "nonpayable",
      "type": "constructor"
    },
    {
      "anonymous": false,
      "inputs": [
        {
          "indexed": true,
          "internalType": "address",
          "name": "owner",
          "type": "address"
        },
        {
          "indexed": true,
          "internalType": "address",
          "name": "spender",
          "type": "address"
        },
        {
          "indexed": false,
          "internalType": "uint256",
          "name": "value",
          "type": "uint256"
        }
      ],
      "name": "Approval",
      "type": "event"
    },
    {
      "anonymous": false,
      "inputs": [
        {
          "indexed": true,
          "internalType": "address",
          "name": "previousOwner",
          "type": "address"
        },
        {
          "indexed": true,
          "internalType": "address",
          "name": "newOwner",
          "type": "address"
        }
      ],
      "name": "OwnershipTransferred",
      "type": "event"
    },
    {
      "anonymous": false,
      "inputs": [
        {
          "indexed": true,
          "internalType": "address",
          "name": "from",
          "type": "address"
        },
        {
          "indexed": true,
          "internalType": "address",
          "name": "to",
          "type": "address"
        },
        {
          "indexed": false,
          "internalType": "uint256",
          "name": "value",
          "type": "uint256"
        }
      ],
      "name": "Transfer",
      "type": "event"
    },
    {
      "inputs": [
        {
          "internalType": "address",
          "name": "_controllers",
          "type": "address"
        }
      ],
      "name": "addControllers",
      "outputs": [],
      "stateMutability": "nonpayable",
      "type": "function"
    },
    {
      "inputs": [
        {
          "internalType": "address",
          "name": "owner",
          "type": "address"
        },
        {
          "internalType": "address",
          "name": "spender",
          "type": "address"
        }
      ],
      "name": "allowance",
      "outputs": [
        {
          "internalType": "uint256",
          "name": "",
          "type": "uint256"
        }
      ],
      "stateMutability": "view",
      "type": "function"
    },
    {
      "inputs": [
        {
          "internalType": "address",
          "name": "spender",
          "type": "address"
        },
        {
          "internalType": "uint256",
          "name": "amount",
          "type": "uint256"
        }
      ],
      "name": "approve",
      "outputs": [
        {
          "internalType": "bool",
          "name": "",
          "type": "bool"
        }
      ],
      "stateMutability": "nonpayable",
      "type": "function"
    },
    {
      "inputs": [
        {
          "internalType": "address",
          "name": "account",
          "type": "address"
        }
      ],
      "name": "balanceOf",
      "outputs": [
        {
          "internalType": "uint256",
          "name": "",
          "type": "uint256"
        }
      ],
      "stateMutability": "view",
      "type": "function"
    },
    {
      "inputs": [
        {
          "internalType": "address",
          "name": "_user",
          "type": "address"
        },
        {
          "internalType": "uint256",
          "name": "_amount",
          "type": "uint256"
        }
      ],
      "name": "burnCBSFromPartnerControllers",
      "outputs": [],
      "stateMutability": "nonpayable",
      "type": "function"
    },
    {
      "inputs": [],
      "name": "currentSupply",
      "outputs": [
        {
          "internalType": "uint256",
          "name": "",
          "type": "uint256"
        }
      ],
      "stateMutability": "view",
      "type": "function"
    },
    {
      "inputs": [],
      "name": "decimals",
      "outputs": [
        {
          "internalType": "uint8",
          "name": "",
          "type": "uint8"
        }
      ],
      "stateMutability": "view",
      "type": "function"
    },
    {
      "inputs": [
        {
          "internalType": "address",
          "name": "spender",
          "type": "address"
        },
        {
          "internalType": "uint256",
          "name": "subtractedValue",
          "type": "uint256"
        }
      ],
      "name": "decreaseAllowance",
      "outputs": [
        {
          "internalType": "bool",
          "name": "",
          "type": "bool"
        }
      ],
      "stateMutability": "nonpayable",
      "type": "function"
    },
    {
      "inputs": [
        {
          "components": [
            {
              "internalType": "address",
              "name": "senderAddress",
              "type": "address"
            },
            {
              "internalType": "address",
              "name": "receiverAddress",
              "type": "address"
            },
            {
              "internalType": "bool",
              "name": "action",
              "type": "bool"
            },
            {
              "internalType": "uint256",
              "name": "timestamp",
              "type": "uint256"
            },
            {
              "internalType": "uint256",
              "name": "bankBalance",
              "type": "uint256"
            },
            {
              "internalType": "uint256",
              "name": "amountToMint",
              "type": "uint256"
            },
            {
              "internalType": "bytes",
              "name": "signature",
              "type": "bytes"
            }
          ],
          "internalType": "struct Backend.BackendSigner",
          "name": "whitelist",
          "type": "tuple"
        }
      ],
      "name": "getSigner",
      "outputs": [
        {
          "internalType": "address",
          "name": "",
          "type": "address"
        }
      ],
      "stateMutability": "view",
      "type": "function"
    },
    {
      "inputs": [
        {
          "internalType": "address",
          "name": "spender",
          "type": "address"
        },
        {
          "internalType": "uint256",
          "name": "addedValue",
          "type": "uint256"
        }
      ],
      "name": "increaseAllowance",
      "outputs": [
        {
          "internalType": "bool",
          "name": "",
          "type": "bool"
        }
      ],
      "stateMutability": "nonpayable",
      "type": "function"
    },
    {
      "inputs": [
        {
          "components": [
            {
              "internalType": "address",
              "name": "senderAddress",
              "type": "address"
            },
            {
              "internalType": "address",
              "name": "receiverAddress",
              "type": "address"
            },
            {
              "internalType": "bool",
              "name": "action",
              "type": "bool"
            },
            {
              "internalType": "uint256",
              "name": "timestamp",
              "type": "uint256"
            },
            {
              "internalType": "uint256",
              "name": "bankBalance",
              "type": "uint256"
            },
            {
              "internalType": "uint256",
              "name": "amountToMint",
              "type": "uint256"
            },
            {
              "internalType": "bytes",
              "name": "signature",
              "type": "bytes"
            }
          ],
          "internalType": "struct Backend.BackendSigner",
          "name": "backend",
          "type": "tuple"
        }
      ],
      "name": "mintToken",
      "outputs": [],
      "stateMutability": "nonpayable",
      "type": "function"
    },
    {
      "inputs": [],
      "name": "name",
      "outputs": [
        {
          "internalType": "string",
          "name": "",
          "type": "string"
        }
      ],
      "stateMutability": "view",
      "type": "function"
    },
    {
      "inputs": [
        {
          "internalType": "address",
          "name": "",
          "type": "address"
        },
        {
          "internalType": "uint256",
          "name": "",
          "type": "uint256"
        }
      ],
      "name": "nonceChecker",
      "outputs": [
        {
          "internalType": "bool",
          "name": "",
          "type": "bool"
        }
      ],
      "stateMutability": "view",
      "type": "function"
    },
    {
      "inputs": [
        {
          "internalType": "address",
          "name": "",
          "type": "address"
        }
      ],
      "name": "onlyControllers",
      "outputs": [
        {
          "internalType": "bool",
          "name": "",
          "type": "bool"
        }
      ],
      "stateMutability": "view",
      "type": "function"
    },
    {
      "inputs": [],
      "name": "owner",
      "outputs": [
        {
          "internalType": "address",
          "name": "",
          "type": "address"
        }
      ],
      "stateMutability": "view",
      "type": "function"
    },
    {
      "inputs": [],
      "name": "renounceOwnership",
      "outputs": [],
      "stateMutability": "nonpayable",
      "type": "function"
    },
    {
      "inputs": [],
      "name": "signer",
      "outputs": [
        {
          "internalType": "address",
          "name": "",
          "type": "address"
        }
      ],
      "stateMutability": "view",
      "type": "function"
    },
    {
      "inputs": [],
      "name": "symbol",
      "outputs": [
        {
          "internalType": "string",
          "name": "",
          "type": "string"
        }
      ],
      "stateMutability": "view",
      "type": "function"
    },
    {
      "inputs": [],
      "name": "totalSupply",
      "outputs": [
        {
          "internalType": "uint256",
          "name": "",
          "type": "uint256"
        }
      ],
      "stateMutability": "view",
      "type": "function"
    },
    {
      "inputs": [
        {
          "internalType": "address",
          "name": "to",
          "type": "address"
        },
        {
          "internalType": "uint256",
          "name": "amount",
          "type": "uint256"
        }
      ],
      "name": "transfer",
      "outputs": [
        {
          "internalType": "bool",
          "name": "",
          "type": "bool"
        }
      ],
      "stateMutability": "nonpayable",
      "type": "function"
    },
    {
      "inputs": [
        {
          "internalType": "address",
          "name": "from",
          "type": "address"
        },
        {
          "internalType": "address",
          "name": "to",
          "type": "address"
        },
        {
          "internalType": "uint256",
          "name": "amount",
          "type": "uint256"
        }
      ],
      "name": "transferFrom",
      "outputs": [
        {
          "internalType": "bool",
          "name": "",
          "type": "bool"
        }
      ],
      "stateMutability": "nonpayable",
      "type": "function"
    },
    {
      "inputs": [
        {
          "internalType": "address",
          "name": "newOwner",
          "type": "address"
        }
      ],
      "name": "transferOwnership",
      "outputs": [],
      "stateMutability": "nonpayable",
      "type": "function"
    }
  ],
  "bytecode": "0x60806040523480156200001157600080fd5b506040518060400160405280600f81526020017f4342535f537461626c655f436f696e00000000000000000000000000000000008152506040518060400160405280600381526020017f4342530000000000000000000000000000000000000000000000000000000000815250816003908051906020019062000096929190620001a6565b508060049080519060200190620000af929190620001a6565b505050620000d2620000c6620000d860201b60201c565b620000e060201b60201c565b620002bb565b600033905090565b6000600560009054906101000a900473ffffffffffffffffffffffffffffffffffffffff16905081600560006101000a81548173ffffffffffffffffffffffffffffffffffffffff021916908373ffffffffffffffffffffffffffffffffffffffff1602179055508173ffffffffffffffffffffffffffffffffffffffff168173ffffffffffffffffffffffffffffffffffffffff167f8be0079c531659141344cd1fd0a4f28419497f9722a3daafe3b4186f6b6457e060405160405180910390a35050565b828054620001b49062000256565b90600052602060002090601f016020900481019282620001d8576000855562000224565b82601f10620001f357805160ff191683800117855562000224565b8280016001018555821562000224579182015b828111156200022357825182559160200191906001019062000206565b5b50905062000233919062000237565b5090565b5b808211156200025257600081600090555060010162000238565b5090565b600060028204905060018216806200026f57607f821691505b602082108114156200028657620002856200028c565b5b50919050565b7f4e487b7100000000000000000000000000000000000000000000000000000000600052602260045260246000fd5b61325980620002cb6000396000f3fe608060405234801561001057600080fd5b50600436106101425760003560e01c8063771282f6116100b8578063a9059cbb1161007c578063a9059cbb1461037b578063baa2c5d6146103ab578063d1a53349146103c7578063dd62ed3e146103f7578063f2fde38b14610427578063f741f6ec1461044357610142565b8063771282f6146102d55780638da5cb5b146102f357806395d89b411461031157806398e249361461032f578063a457c2d71461034b57610142565b8063313ce5671161010a578063313ce56714610201578063395093511461021f5780634bc54eb91461024f57806351cec2161461027f57806370a082311461029b578063715018a6146102cb57610142565b806306fdde0314610147578063095ea7b31461016557806318160ddd14610195578063238ac933146101b357806323b872dd146101d1575b600080fd5b61014f610473565b60405161015c91906126c2565b60405180910390f35b61017f600480360381019061017a9190612111565b610505565b60405161018c91906125a0565b60405180910390f35b61019d610528565b6040516101aa91906129a4565b60405180910390f35b6101bb610532565b6040516101c89190612585565b60405180910390f35b6101eb60048036038101906101e691906120c2565b610558565b6040516101f891906125a0565b60405180910390f35b610209610587565b60405161021691906129bf565b60405180910390f35b61023960048036038101906102349190612111565b610590565b60405161024691906125a0565b60405180910390f35b6102696004803603810190610264919061214d565b61063a565b6040516102769190612585565b60405180910390f35b6102996004803603810190610294919061205d565b61064c565b005b6102b560048036038101906102b0919061205d565b610723565b6040516102c291906129a4565b60405180910390f35b6102d361076b565b005b6102dd6107f3565b6040516102ea91906129a4565b60405180910390f35b6102fb6107f9565b6040516103089190612585565b60405180910390f35b610319610823565b60405161032691906126c2565b60405180910390f35b61034960048036038101906103449190612111565b6108b5565b005b61036560048036038101906103609190612111565b610968565b60405161037291906125a0565b60405180910390f35b61039560048036038101906103909190612111565b610a52565b6040516103a291906125a0565b60405180910390f35b6103c560048036038101906103c0919061214d565b610a75565b005b6103e160048036038101906103dc9190612111565b610d57565b6040516103ee91906125a0565b60405180910390f35b610411600480360381019061040c9190612086565b610d86565b60405161041e91906129a4565b60405180910390f35b610441600480360381019061043c919061205d565b610e0d565b005b61045d6004803603810190610458919061205d565b610f05565b60405161046a91906125a0565b60405180910390f35b60606003805461048290612b82565b80601f01602080910402602001604051908101604052809291908181526020018280546104ae90612b82565b80156104fb5780601f106104d0576101008083540402835291602001916104fb565b820191906000526020600020905b8154815290600101906020018083116104de57829003601f168201915b5050505050905090565b600080610510610f25565b905061051d818585610f2d565b600191505092915050565b6000600254905090565b603b60009054906101000a900473ffffffffffffffffffffffffffffffffffffffff1681565b600080610563610f25565b90506105708582856110f8565b61057b858585611184565b60019150509392505050565b60006012905090565b60008061059b610f25565b905061062f818585600160008673ffffffffffffffffffffffffffffffffffffffff1673ffffffffffffffffffffffffffffffffffffffff16815260200190815260200160002060008973ffffffffffffffffffffffffffffffffffffffff1673ffffffffffffffffffffffffffffffffffffffff1681526020019081526020016000205461062a9190612a57565b610f2d565b600191505092915050565b600061064582611405565b9050919050565b610654610f25565b73ffffffffffffffffffffffffffffffffffffffff166106726107f9565b73ffffffffffffffffffffffffffffffffffffffff16146106c8576040517f08c379a00000000000000000000000000000000000000000000000000000000081526004016106bf906128c4565b60405180910390fd5b6001603c60008373ffffffffffffffffffffffffffffffffffffffff1673ffffffffffffffffffffffffffffffffffffffff16815260200190815260200160002060006101000a81548160ff02191690831515021790555050565b60008060008373ffffffffffffffffffffffffffffffffffffffff1673ffffffffffffffffffffffffffffffffffffffff168152602001908152602001600020549050919050565b610773610f25565b73ffffffffffffffffffffffffffffffffffffffff166107916107f9565b73ffffffffffffffffffffffffffffffffffffffff16146107e7576040517f08c379a00000000000000000000000000000000000000000000000000000000081526004016107de906128c4565b60405180910390fd5b6107f16000611429565b565b603a5481565b6000600560009054906101000a900473ffffffffffffffffffffffffffffffffffffffff16905090565b60606004805461083290612b82565b80601f016020809104026020016040519081016040528092919081815260200182805461085e90612b82565b80156108ab5780601f10610880576101008083540402835291602001916108ab565b820191906000526020600020905b81548152906001019060200180831161088e57829003601f168201915b5050505050905090565b603c60003373ffffffffffffffffffffffffffffffffffffffff1673ffffffffffffffffffffffffffffffffffffffff16815260200190815260200160002060009054906101000a900460ff16610941576040517f08c379a0000000000000000000000000000000000000000000000000000000008152600401610938906127e4565b60405180910390fd5b80603a60008282546109539190612aad565b9250508190555061096482826114ef565b5050565b600080610973610f25565b90506000600160008373ffffffffffffffffffffffffffffffffffffffff1673ffffffffffffffffffffffffffffffffffffffff16815260200190815260200160002060008673ffffffffffffffffffffffffffffffffffffffff1673ffffffffffffffffffffffffffffffffffffffff16815260200190815260200160002054905083811015610a39576040517f08c379a0000000000000000000000000000000000000000000000000000000008152600401610a3090612964565b60405180910390fd5b610a468286868403610f2d565b60019250505092915050565b600080610a5d610f25565b9050610a6a818585611184565b600191505092915050565b603b60009054906101000a900473ffffffffffffffffffffffffffffffffffffffff1673ffffffffffffffffffffffffffffffffffffffff16610ab78261063a565b73ffffffffffffffffffffffffffffffffffffffff1614610b0d576040517f08c379a0000000000000000000000000000000000000000000000000000000008152600401610b0490612864565b60405180910390fd5b3373ffffffffffffffffffffffffffffffffffffffff16816000015173ffffffffffffffffffffffffffffffffffffffff1614610b7f576040517f08c379a0000000000000000000000000000000000000000000000000000000008152600401610b7690612704565b60405180910390fd5b8060400151610bc3576040517f08c379a0000000000000000000000000000000000000000000000000000000008152600401610bba90612884565b60405180910390fd5b603d60003373ffffffffffffffffffffffffffffffffffffffff1673ffffffffffffffffffffffffffffffffffffffff16815260200190815260200160002060008260600151815260200190815260200160002060009054906101000a900460ff1615610c65576040517f08c379a0000000000000000000000000000000000000000000000000000000008152600401610c5c90612784565b60405180910390fd5b8060a00151603a54610c779190612a57565b816080015114610cbc576040517f08c379a0000000000000000000000000000000000000000000000000000000008152600401610cb390612924565b60405180910390fd5b6001603d60003373ffffffffffffffffffffffffffffffffffffffff1673ffffffffffffffffffffffffffffffffffffffff16815260200190815260200160002060008360600151815260200190815260200160002060006101000a81548160ff0219169083151502179055508060a00151603a6000828254610d3f9190612a57565b92505081905550610d54338260a001516116c6565b50565b603d6020528160005260406000206020528060005260406000206000915091509054906101000a900460ff1681565b6000600160008473ffffffffffffffffffffffffffffffffffffffff1673ffffffffffffffffffffffffffffffffffffffff16815260200190815260200160002060008373ffffffffffffffffffffffffffffffffffffffff1673ffffffffffffffffffffffffffffffffffffffff16815260200190815260200160002054905092915050565b610e15610f25565b73ffffffffffffffffffffffffffffffffffffffff16610e336107f9565b73ffffffffffffffffffffffffffffffffffffffff1614610e89576040517f08c379a0000000000000000000000000000000000000000000000000000000008152600401610e80906128c4565b60405180910390fd5b600073ffffffffffffffffffffffffffffffffffffffff168173ffffffffffffffffffffffffffffffffffffffff161415610ef9576040517f08c379a0000000000000000000000000000000000000000000000000000000008152600401610ef0906127a4565b60405180910390fd5b610f0281611429565b50565b603c6020528060005260406000206000915054906101000a900460ff1681565b600033905090565b600073ffffffffffffffffffffffffffffffffffffffff168373ffffffffffffffffffffffffffffffffffffffff161415610f9d576040517f08c379a0000000000000000000000000000000000000000000000000000000008152600401610f9490612944565b60405180910390fd5b600073ffffffffffffffffffffffffffffffffffffffff168273ffffffffffffffffffffffffffffffffffffffff16141561100d576040517f08c379a0000000000000000000000000000000000000000000000000000000008152600401611004906127c4565b60405180910390fd5b80600160008573ffffffffffffffffffffffffffffffffffffffff1673ffffffffffffffffffffffffffffffffffffffff16815260200190815260200160002060008473ffffffffffffffffffffffffffffffffffffffff1673ffffffffffffffffffffffffffffffffffffffff168152602001908152602001600020819055508173ffffffffffffffffffffffffffffffffffffffff168373ffffffffffffffffffffffffffffffffffffffff167f8c5be1e5ebec7d5bd14f71427d1e84f3dd0314c0f7b2291e5b200ac8c7c3b925836040516110eb91906129a4565b60405180910390a3505050565b60006111048484610d86565b90507fffffffffffffffffffffffffffffffffffffffffffffffffffffffffffffffff811461117e5781811015611170576040517f08c379a000000000000000000000000000000000000000000000000000000000815260040161116790612804565b60405180910390fd5b61117d8484848403610f2d565b5b50505050565b600073ffffffffffffffffffffffffffffffffffffffff168373ffffffffffffffffffffffffffffffffffffffff1614156111f4576040517f08c379a00000000000000000000000000000000000000000000000000000000081526004016111eb90612904565b60405180910390fd5b600073ffffffffffffffffffffffffffffffffffffffff168273ffffffffffffffffffffffffffffffffffffffff161415611264576040517f08c379a000000000000000000000000000000000000000000000000000000000815260040161125b90612724565b60405180910390fd5b61126f838383611826565b60008060008573ffffffffffffffffffffffffffffffffffffffff1673ffffffffffffffffffffffffffffffffffffffff168152602001908152602001600020549050818110156112f5576040517f08c379a00000000000000000000000000000000000000000000000000000000081526004016112ec90612824565b60405180910390fd5b8181036000808673ffffffffffffffffffffffffffffffffffffffff1673ffffffffffffffffffffffffffffffffffffffff16815260200190815260200160002081905550816000808573ffffffffffffffffffffffffffffffffffffffff1673ffffffffffffffffffffffffffffffffffffffff16815260200190815260200160002060008282546113889190612a57565b925050819055508273ffffffffffffffffffffffffffffffffffffffff168473ffffffffffffffffffffffffffffffffffffffff167fddf252ad1be2c89b69c2b068fc378daa952ba7f163c4a11628f55a4df523b3ef846040516113ec91906129a4565b60405180910390a36113ff84848461182b565b50505050565b60008061141183611830565b9050611421818460c001516118ac565b915050919050565b6000600560009054906101000a900473ffffffffffffffffffffffffffffffffffffffff16905081600560006101000a81548173ffffffffffffffffffffffffffffffffffffffff021916908373ffffffffffffffffffffffffffffffffffffffff1602179055508173ffffffffffffffffffffffffffffffffffffffff168173ffffffffffffffffffffffffffffffffffffffff167f8be0079c531659141344cd1fd0a4f28419497f9722a3daafe3b4186f6b6457e060405160405180910390a35050565b600073ffffffffffffffffffffffffffffffffffffffff168273ffffffffffffffffffffffffffffffffffffffff16141561155f576040517f08c379a0000000000000000000000000000000000000000000000000000000008152600401611556906128e4565b60405180910390fd5b61156b82600083611826565b60008060008473ffffffffffffffffffffffffffffffffffffffff1673ffffffffffffffffffffffffffffffffffffffff168152602001908152602001600020549050818110156115f1576040517f08c379a00000000000000000000000000000000000000000000000000000000081526004016115e890612744565b60405180910390fd5b8181036000808573ffffffffffffffffffffffffffffffffffffffff1673ffffffffffffffffffffffffffffffffffffffff1681526020019081526020016000208190555081600260008282546116489190612aad565b92505081905550600073ffffffffffffffffffffffffffffffffffffffff168373ffffffffffffffffffffffffffffffffffffffff167fddf252ad1be2c89b69c2b068fc378daa952ba7f163c4a11628f55a4df523b3ef846040516116ad91906129a4565b60405180910390a36116c18360008461182b565b505050565b600073ffffffffffffffffffffffffffffffffffffffff168273ffffffffffffffffffffffffffffffffffffffff161415611736576040517f08c379a000000000000000000000000000000000000000000000000000000000815260040161172d90612984565b60405180910390fd5b61174260008383611826565b80600260008282546117549190612a57565b92505081905550806000808473ffffffffffffffffffffffffffffffffffffffff1673ffffffffffffffffffffffffffffffffffffffff16815260200190815260200160002060008282546117a99190612a57565b925050819055508173ffffffffffffffffffffffffffffffffffffffff16600073ffffffffffffffffffffffffffffffffffffffff167fddf252ad1be2c89b69c2b068fc378daa952ba7f163c4a11628f55a4df523b3ef8360405161180e91906129a4565b60405180910390a36118226000838361182b565b5050565b505050565b505050565b60006118a57fc321b07044129420c1b0d553e77b81bdf6a1ed776902eea5b6c8df2b2f65ac5f836000015184602001518560400151866060015187608001518860a0015160405160200161188a97969594939291906125bb565b604051602081830303815290604052805190602001206118d3565b9050919050565b60008060006118bb85856118ed565b915091506118c881611970565b819250505092915050565b60006118e66118e0611cc1565b83611d01565b9050919050565b60008060418351141561192f5760008060006020860151925060408601519150606086015160001a905061192387828585611d34565b94509450505050611969565b604083511415611960576000806020850151915060408501519050611955868383611e41565b935093505050611969565b60006002915091505b9250929050565b600060048111156119aa577f4e487b7100000000000000000000000000000000000000000000000000000000600052602160045260246000fd5b8160048111156119e3577f4e487b7100000000000000000000000000000000000000000000000000000000600052602160045260246000fd5b14156119ee57611cbe565b60016004811115611a28577f4e487b7100000000000000000000000000000000000000000000000000000000600052602160045260246000fd5b816004811115611a61577f4e487b7100000000000000000000000000000000000000000000000000000000600052602160045260246000fd5b1415611aa2576040517f08c379a0000000000000000000000000000000000000000000000000000000008152600401611a99906126e4565b60405180910390fd5b60026004811115611adc577f4e487b7100000000000000000000000000000000000000000000000000000000600052602160045260246000fd5b816004811115611b15577f4e487b7100000000000000000000000000000000000000000000000000000000600052602160045260246000fd5b1415611b56576040517f08c379a0000000000000000000000000000000000000000000000000000000008152600401611b4d90612764565b60405180910390fd5b60036004811115611b90577f4e487b7100000000000000000000000000000000000000000000000000000000600052602160045260246000fd5b816004811115611bc9577f4e487b7100000000000000000000000000000000000000000000000000000000600052602160045260246000fd5b1415611c0a576040517f08c379a0000000000000000000000000000000000000000000000000000000008152600401611c0190612844565b60405180910390fd5b600480811115611c43577f4e487b7100000000000000000000000000000000000000000000000000000000600052602160045260246000fd5b816004811115611c7c577f4e487b7100000000000000000000000000000000000000000000000000000000600052602160045260246000fd5b1415611cbd576040517f08c379a0000000000000000000000000000000000000000000000000000000008152600401611cb4906128a4565b60405180910390fd5b5b50565b6000611cfc7f8b73c3c69bb8fe3d512ecc4cf759cc79239f7b179b0ffacaa9a75d522b39400f611cef611ea0565b611cf7611eaa565b611eb4565b905090565b60008282604051602001611d1692919061254e565b60405160208183030381529060405280519060200120905092915050565b6000807f7fffffffffffffffffffffffffffffff5d576e7357a4501ddfe92f46681b20a08360001c1115611d6f576000600391509150611e38565b601b8560ff1614158015611d875750601c8560ff1614155b15611d99576000600491509150611e38565b600060018787878760405160008152602001604052604051611dbe949392919061267d565b6020604051602081039080840390855afa158015611de0573d6000803e3d6000fd5b505050602060405103519050600073ffffffffffffffffffffffffffffffffffffffff168173ffffffffffffffffffffffffffffffffffffffff161415611e2f57600060019250925050611e38565b80600092509250505b94509492505050565b60008060007f7fffffffffffffffffffffffffffffffffffffffffffffffffffffffffffffff60001b841690506000601b60ff8660001c901c611e849190612a57565b9050611e9287828885611d34565b935093505050935093915050565b6000600654905090565b6000600754905090565b60008383834630604051602001611ecf95949392919061262a565b6040516020818303038152906040528051906020012090509392505050565b6000611f01611efc846129ff565b6129da565b905082815260208101848484011115611f1957600080fd5b611f24848285612b40565b509392505050565b600081359050611f3b816131de565b92915050565b600081359050611f50816131f5565b92915050565b600082601f830112611f6757600080fd5b8135611f77848260208601611eee565b91505092915050565b600060e08284031215611f9257600080fd5b611f9c60e06129da565b90506000611fac84828501611f2c565b6000830152506020611fc084828501611f2c565b6020830152506040611fd484828501611f41565b6040830152506060611fe884828501612048565b6060830152506080611ffc84828501612048565b60808301525060a061201084828501612048565b60a08301525060c082013567ffffffffffffffff81111561203057600080fd5b61203c84828501611f56565b60c08301525092915050565b6000813590506120578161320c565b92915050565b60006020828403121561206f57600080fd5b600061207d84828501611f2c565b91505092915050565b6000806040838503121561209957600080fd5b60006120a785828601611f2c565b92505060206120b885828601611f2c565b9150509250929050565b6000806000606084860312156120d757600080fd5b60006120e586828701611f2c565b93505060206120f686828701611f2c565b925050604061210786828701612048565b9150509250925092565b6000806040838503121561212457600080fd5b600061213285828601611f2c565b925050602061214385828601612048565b9150509250929050565b60006020828403121561215f57600080fd5b600082013567ffffffffffffffff81111561217957600080fd5b61218584828501611f80565b91505092915050565b61219781612ae1565b82525050565b6121a681612af3565b82525050565b6121b581612aff565b82525050565b6121cc6121c782612aff565b612be5565b82525050565b60006121dd82612a30565b6121e78185612a3b565b93506121f7818560208601612b4f565b61220081612c7c565b840191505092915050565b6000612218601883612a3b565b915061222382612c8d565b602082019050919050565b600061223b600583612a3b565b915061224682612cb6565b602082019050919050565b600061225e602383612a3b565b915061226982612cdf565b604082019050919050565b6000612281602283612a3b565b915061228c82612d2e565b604082019050919050565b60006122a4601f83612a3b565b91506122af82612d7d565b602082019050919050565b60006122c7600a83612a3b565b91506122d282612da6565b602082019050919050565b60006122ea602683612a3b565b91506122f582612dcf565b604082019050919050565b600061230d602283612a3b565b915061231882612e1e565b604082019050919050565b6000612330600b83612a3b565b915061233b82612e6d565b602082019050919050565b6000612353600283612a4c565b915061235e82612e96565b600282019050919050565b6000612376601d83612a3b565b915061238182612ebf565b602082019050919050565b6000612399602683612a3b565b91506123a482612ee8565b604082019050919050565b60006123bc602283612a3b565b91506123c782612f37565b604082019050919050565b60006123df600783612a3b565b91506123ea82612f86565b602082019050919050565b6000612402600583612a3b565b915061240d82612faf565b602082019050919050565b6000612425602283612a3b565b915061243082612fd8565b604082019050919050565b6000612448602083612a3b565b915061245382613027565b602082019050919050565b600061246b602183612a3b565b915061247682613050565b604082019050919050565b600061248e602583612a3b565b91506124998261309f565b604082019050919050565b60006124b1600b83612a3b565b91506124bc826130ee565b602082019050919050565b60006124d4602483612a3b565b91506124df82613117565b604082019050919050565b60006124f7602583612a3b565b915061250282613166565b604082019050919050565b600061251a601f83612a3b565b9150612525826131b5565b602082019050919050565b61253981612b29565b82525050565b61254881612b33565b82525050565b600061255982612346565b915061256582856121bb565b60208201915061257582846121bb565b6020820191508190509392505050565b600060208201905061259a600083018461218e565b92915050565b60006020820190506125b5600083018461219d565b92915050565b600060e0820190506125d0600083018a6121ac565b6125dd602083018961218e565b6125ea604083018861218e565b6125f7606083018761219d565b6126046080830186612530565b61261160a0830185612530565b61261e60c0830184612530565b98975050505050505050565b600060a08201905061263f60008301886121ac565b61264c60208301876121ac565b61265960408301866121ac565b6126666060830185612530565b612673608083018461218e565b9695505050505050565b600060808201905061269260008301876121ac565b61269f602083018661253f565b6126ac60408301856121ac565b6126b960608301846121ac565b95945050505050565b600060208201905081810360008301526126dc81846121d2565b905092915050565b600060208201905081810360008301526126fd8161220b565b9050919050565b6000602082019050818103600083015261271d8161222e565b9050919050565b6000602082019050818103600083015261273d81612251565b9050919050565b6000602082019050818103600083015261275d81612274565b9050919050565b6000602082019050818103600083015261277d81612297565b9050919050565b6000602082019050818103600083015261279d816122ba565b9050919050565b600060208201905081810360008301526127bd816122dd565b9050919050565b600060208201905081810360008301526127dd81612300565b9050919050565b600060208201905081810360008301526127fd81612323565b9050919050565b6000602082019050818103600083015261281d81612369565b9050919050565b6000602082019050818103600083015261283d8161238c565b9050919050565b6000602082019050818103600083015261285d816123af565b9050919050565b6000602082019050818103600083015261287d816123d2565b9050919050565b6000602082019050818103600083015261289d816123f5565b9050919050565b600060208201905081810360008301526128bd81612418565b9050919050565b600060208201905081810360008301526128dd8161243b565b9050919050565b600060208201905081810360008301526128fd8161245e565b9050919050565b6000602082019050818103600083015261291d81612481565b9050919050565b6000602082019050818103600083015261293d816124a4565b9050919050565b6000602082019050818103600083015261295d816124c7565b9050919050565b6000602082019050818103600083015261297d816124ea565b9050919050565b6000602082019050818103600083015261299d8161250d565b9050919050565b60006020820190506129b96000830184612530565b92915050565b60006020820190506129d4600083018461253f565b92915050565b60006129e46129f5565b90506129f08282612bb4565b919050565b6000604051905090565b600067ffffffffffffffff821115612a1a57612a19612c4d565b5b612a2382612c7c565b9050602081019050919050565b600081519050919050565b600082825260208201905092915050565b600081905092915050565b6000612a6282612b29565b9150612a6d83612b29565b9250827fffffffffffffffffffffffffffffffffffffffffffffffffffffffffffffffff03821115612aa257612aa1612bef565b5b828201905092915050565b6000612ab882612b29565b9150612ac383612b29565b925082821015612ad657612ad5612bef565b5b828203905092915050565b6000612aec82612b09565b9050919050565b60008115159050919050565b6000819050919050565b600073ffffffffffffffffffffffffffffffffffffffff82169050919050565b6000819050919050565b600060ff82169050919050565b82818337600083830152505050565b60005b83811015612b6d578082015181840152602081019050612b52565b83811115612b7c576000848401525b50505050565b60006002820490506001821680612b9a57607f821691505b60208210811415612bae57612bad612c1e565b5b50919050565b612bbd82612c7c565b810181811067ffffffffffffffff82111715612bdc57612bdb612c4d565b5b80604052505050565b6000819050919050565b7f4e487b7100000000000000000000000000000000000000000000000000000000600052601160045260246000fd5b7f4e487b7100000000000000000000000000000000000000000000000000000000600052602260045260246000fd5b7f4e487b7100000000000000000000000000000000000000000000000000000000600052604160045260246000fd5b6000601f19601f8301169050919050565b7f45434453413a20696e76616c6964207369676e61747572650000000000000000600082015250565b7f2155736572000000000000000000000000000000000000000000000000000000600082015250565b7f45524332303a207472616e7366657220746f20746865207a65726f206164647260008201527f6573730000000000000000000000000000000000000000000000000000000000602082015250565b7f45524332303a206275726e20616d6f756e7420657863656564732062616c616e60008201527f6365000000000000000000000000000000000000000000000000000000000000602082015250565b7f45434453413a20696e76616c6964207369676e6174757265206c656e67746800600082015250565b7f4e6f6e6365205573656400000000000000000000000000000000000000000000600082015250565b7f4f776e61626c653a206e6577206f776e657220697320746865207a65726f206160008201527f6464726573730000000000000000000000000000000000000000000000000000602082015250565b7f45524332303a20617070726f766520746f20746865207a65726f20616464726560008201527f7373000000000000000000000000000000000000000000000000000000000000602082015250565b7f21436f6e74726f6c6c6572000000000000000000000000000000000000000000600082015250565b7f1901000000000000000000000000000000000000000000000000000000000000600082015250565b7f45524332303a20696e73756666696369656e7420616c6c6f77616e6365000000600082015250565b7f45524332303a207472616e7366657220616d6f756e742065786365656473206260008201527f616c616e63650000000000000000000000000000000000000000000000000000602082015250565b7f45434453413a20696e76616c6964207369676e6174757265202773272076616c60008201527f7565000000000000000000000000000000000000000000000000000000000000602082015250565b7f215369676e657200000000000000000000000000000000000000000000000000600082015250565b7f214d696e74000000000000000000000000000000000000000000000000000000600082015250565b7f45434453413a20696e76616c6964207369676e6174757265202776272076616c60008201527f7565000000000000000000000000000000000000000000000000000000000000602082015250565b7f4f776e61626c653a2063616c6c6572206973206e6f7420746865206f776e6572600082015250565b7f45524332303a206275726e2066726f6d20746865207a65726f2061646472657360008201527f7300000000000000000000000000000000000000000000000000000000000000602082015250565b7f45524332303a207472616e736665722066726f6d20746865207a65726f20616460008201527f6472657373000000000000000000000000000000000000000000000000000000602082015250565b7f43616e6e6f74204d696e74000000000000000000000000000000000000000000600082015250565b7f45524332303a20617070726f76652066726f6d20746865207a65726f2061646460008201527f7265737300000000000000000000000000000000000000000000000000000000602082015250565b7f45524332303a2064656372656173656420616c6c6f77616e63652062656c6f7760008201527f207a65726f000000000000000000000000000000000000000000000000000000602082015250565b7f45524332303a206d696e7420746f20746865207a65726f206164647265737300600082015250565b6131e781612ae1565b81146131f257600080fd5b50565b6131fe81612af3565b811461320957600080fd5b50565b61321581612b29565b811461322057600080fd5b5056fea26469706673582212205fb78fe29b0d1dae7bb4742bae13889ac64b1006c51ac8027769971dd848973364736f6c63430008040033",
  "linkReferences": {},
  "deployedLinkReferences": {}
}