{
  "_format": "hh-sol-artifact-1",
  "contractName": "escrow",
  "sourceName": "contracts/Escrow.sol",
  "abi": [
    {
      "anonymous": false,
      "inputs": [
        {
          "indexed": true,
          "internalType": "address",
          "name": "sender",
          "type": "address"
        },
        {
          "indexed": true,
          "internalType": "address",
          "name": "receiver",
          "type": "address"
        },
        {
          "indexed": false,
          "internalType": "uint256",
          "name": "weiAmount",
          "type": "uint256"
        }
      ],
      "name": "Deposited",
      "type": "event"
    },
    {
      "anonymous": false,
      "inputs": [
        {
          "indexed": true,
          "internalType": "address",
          "name": "previousOwner",
          "type": "address"
        },
        {
          "indexed": true,
          "internalType": "address",
          "name": "newOwner",
          "type": "address"
        }
      ],
      "name": "OwnershipTransferred",
      "type": "event"
    },
    {
      "anonymous": false,
      "inputs": [
        {
          "indexed": true,
          "internalType": "address",
          "name": "sender",
          "type": "address"
        },
        {
          "indexed": true,
          "internalType": "address",
          "name": "receiver",
          "type": "address"
        },
        {
          "indexed": false,
          "internalType": "uint256",
          "name": "weiAmount",
          "type": "uint256"
        }
      ],
      "name": "Withdrawn",
      "type": "event"
    },
    {
      "inputs": [
        {
          "internalType": "address",
          "name": "",
          "type": "address"
        },
        {
          "internalType": "uint256",
          "name": "",
          "type": "uint256"
        }
      ],
      "name": "_deposits",
      "outputs": [
        {
          "internalType": "uint256",
          "name": "",
          "type": "uint256"
        }
      ],
      "stateMutability": "view",
      "type": "function"
    },
    {
      "inputs": [
        {
          "internalType": "address",
          "name": "",
          "type": "address"
        },
        {
          "internalType": "address",
          "name": "",
          "type": "address"
        }
      ],
      "name": "_timesDeposited",
      "outputs": [
        {
          "internalType": "uint256",
          "name": "",
          "type": "uint256"
        }
      ],
      "stateMutability": "view",
      "type": "function"
    },
    {
      "inputs": [
        {
          "internalType": "address",
          "name": "_token",
          "type": "address"
        }
      ],
      "name": "addCBRAddress",
      "outputs": [],
      "stateMutability": "nonpayable",
      "type": "function"
    },
    {
      "inputs": [
        {
          "internalType": "address",
          "name": "_token",
          "type": "address"
        }
      ],
      "name": "addCBSAddress",
      "outputs": [],
      "stateMutability": "nonpayable",
      "type": "function"
    },
    {
      "inputs": [
        {
          "internalType": "address",
          "name": "_signature",
          "type": "address"
        }
      ],
      "name": "addSigner",
      "outputs": [],
      "stateMutability": "nonpayable",
      "type": "function"
    },
    {
      "inputs": [
        {
          "components": [
            {
              "internalType": "address",
              "name": "senderAddress",
              "type": "address"
            },
            {
              "internalType": "address",
              "name": "receiverAddress",
              "type": "address"
            },
            {
              "internalType": "bool",
              "name": "action",
              "type": "bool"
            },
            {
              "internalType": "uint256",
              "name": "timestamp",
              "type": "uint256"
            },
            {
              "internalType": "uint256",
              "name": "bankBalance",
              "type": "uint256"
            },
            {
              "internalType": "uint256",
              "name": "amountToMint",
              "type": "uint256"
            },
            {
              "internalType": "bytes",
              "name": "signature",
              "type": "bytes"
            }
          ],
          "internalType": "struct Backend.BackendSigner",
          "name": "whitelist",
          "type": "tuple"
        }
      ],
      "name": "deposit",
      "outputs": [],
      "stateMutability": "nonpayable",
      "type": "function"
    },
    {
      "inputs": [
        {
          "components": [
            {
              "internalType": "address",
              "name": "senderAddress",
              "type": "address"
            },
            {
              "internalType": "address",
              "name": "receiverAddress",
              "type": "address"
            },
            {
              "internalType": "bool",
              "name": "action",
              "type": "bool"
            },
            {
              "internalType": "uint256",
              "name": "timestamp",
              "type": "uint256"
            },
            {
              "internalType": "uint256",
              "name": "bankBalance",
              "type": "uint256"
            },
            {
              "internalType": "uint256",
              "name": "amountToMint",
              "type": "uint256"
            },
            {
              "internalType": "bytes",
              "name": "signature",
              "type": "bytes"
            }
          ],
          "internalType": "struct Backend.BackendSigner",
          "name": "whitelist",
          "type": "tuple"
        }
      ],
      "name": "getSigner",
      "outputs": [
        {
          "internalType": "address",
          "name": "",
          "type": "address"
        }
      ],
      "stateMutability": "view",
      "type": "function"
    },
    {
      "inputs": [],
      "name": "initialize",
      "outputs": [],
      "stateMutability": "nonpayable",
      "type": "function"
    },
    {
      "inputs": [],
      "name": "owner",
      "outputs": [
        {
          "internalType": "address",
          "name": "",
          "type": "address"
        }
      ],
      "stateMutability": "view",
      "type": "function"
    },
    {
      "inputs": [],
      "name": "renounceOwnership",
      "outputs": [],
      "stateMutability": "nonpayable",
      "type": "function"
    },
    {
      "inputs": [],
      "name": "signer",
      "outputs": [
        {
          "internalType": "address",
          "name": "",
          "type": "address"
        }
      ],
      "stateMutability": "view",
      "type": "function"
    },
    {
      "inputs": [
        {
          "internalType": "address",
          "name": "newOwner",
          "type": "address"
        }
      ],
      "name": "transferOwnership",
      "outputs": [],
      "stateMutability": "nonpayable",
      "type": "function"
    },
    {
      "inputs": [
        {
          "components": [
            {
              "internalType": "address",
              "name": "senderAddress",
              "type": "address"
            },
            {
              "internalType": "address",
              "name": "receiverAddress",
              "type": "address"
            },
            {
              "internalType": "bool",
              "name": "action",
              "type": "bool"
            },
            {
              "internalType": "uint256",
              "name": "timestamp",
              "type": "uint256"
            },
            {
              "internalType": "uint256",
              "name": "bankBalance",
              "type": "uint256"
            },
            {
              "internalType": "uint256",
              "name": "amountToMint",
              "type": "uint256"
            },
            {
              "internalType": "bytes",
              "name": "signature",
              "type": "bytes"
            }
          ],
          "internalType": "struct Backend.BackendSigner",
          "name": "whitelist",
          "type": "tuple"
        },
        {
          "internalType": "uint256",
          "name": "slotId",
          "type": "uint256"
        }
      ],
      "name": "withdraw",
      "outputs": [],
      "stateMutability": "nonpayable",
      "type": "function"
    }
  ],
  "bytecode": "0x608060405234801561001057600080fd5b5061275e806100206000396000f3fe608060405234801561001057600080fd5b50600436106100cf5760003560e01c80638129fc1c1161008c578063b37dc17311610066578063b37dc173146101d8578063cbf54b6f14610208578063eb12d61e14610224578063f2fde38b14610240576100cf565b80638129fc1c146101805780638da5cb5b1461018a5780639a70a783146101a8576100cf565b8063238ac933146100d457806348c961b9146100f25780634bc54eb91461010e5780635f6e74be1461013e578063715018a61461015a578063773abd8714610164575b600080fd5b6100dc61025c565b6040516100e99190611f13565b60405180910390f35b61010c60048036038101906101079190611c5f565b610282565b005b61012860048036038101906101239190611c1e565b610672565b6040516101359190611f13565b60405180910390f35b61015860048036038101906101539190611b54565b610684565b005b610162610744565b005b61017e60048036038101906101799190611c1e565b6107cc565b005b610188610c04565b005b610192610cf8565b60405161019f9190611f13565b60405180910390f35b6101c260048036038101906101bd9190611bb9565b610d22565b6040516101cf9190612215565b60405180910390f35b6101f260048036038101906101ed9190611b7d565b610d47565b6040516101ff9190612215565b60405180910390f35b610222600480360381019061021d9190611b54565b610d6c565b005b61023e60048036038101906102399190611b54565b610e2c565b005b61025a60048036038101906102559190611b54565b610eec565b005b609b60009054906101000a900473ffffffffffffffffffffffffffffffffffffffff1681565b609b60009054906101000a900473ffffffffffffffffffffffffffffffffffffffff1673ffffffffffffffffffffffffffffffffffffffff166102c483610672565b73ffffffffffffffffffffffffffffffffffffffff161461031a576040517f08c379a000000000000000000000000000000000000000000000000000000000815260040161031190612135565b60405180910390fd5b816000015173ffffffffffffffffffffffffffffffffffffffff163373ffffffffffffffffffffffffffffffffffffffff16148061038a575061035b610cf8565b73ffffffffffffffffffffffffffffffffffffffff163373ffffffffffffffffffffffffffffffffffffffff16145b6103c9576040517f08c379a00000000000000000000000000000000000000000000000000000000081526004016103c0906121d5565b60405180910390fd5b6000609c6000846000015173ffffffffffffffffffffffffffffffffffffffff1673ffffffffffffffffffffffffffffffffffffffff168152602001908152602001600020600083815260200190815260200160002054905060008111610465576040517f08c379a000000000000000000000000000000000000000000000000000000000815260040161045c90612115565b60405180910390fd5b609c6000846000015173ffffffffffffffffffffffffffffffffffffffff1673ffffffffffffffffffffffffffffffffffffffff168152602001908152602001600020600083815260200190815260200160002060009055609960009054906101000a900473ffffffffffffffffffffffffffffffffffffffff1673ffffffffffffffffffffffffffffffffffffffff1663a9059cbb8460200151836040518363ffffffff1660e01b815260040161051e929190611f65565b602060405180830381600087803b15801561053857600080fd5b505af115801561054c573d6000803e3d6000fd5b505050506040513d601f19601f820116820180604052508101906105709190611bf5565b50609a60009054906101000a900473ffffffffffffffffffffffffffffffffffffffff1673ffffffffffffffffffffffffffffffffffffffff1663bf0ea5778460000151836040518363ffffffff1660e01b81526004016105d2929190611f65565b600060405180830381600087803b1580156105ec57600080fd5b505af1158015610600573d6000803e3d6000fd5b50505050826020015173ffffffffffffffffffffffffffffffffffffffff163373ffffffffffffffffffffffffffffffffffffffff167fd1c19fbcd4551a5edfb66d43d2e337c04837afda3482b42bdf569a8fccdae5fb836040516106659190612215565b60405180910390a3505050565b600061067d82610fe4565b9050919050565b61068c611008565b73ffffffffffffffffffffffffffffffffffffffff166106aa610cf8565b73ffffffffffffffffffffffffffffffffffffffff1614610700576040517f08c379a00000000000000000000000000000000000000000000000000000000081526004016106f7906121b5565b60405180910390fd5b80609960006101000a81548173ffffffffffffffffffffffffffffffffffffffff021916908373ffffffffffffffffffffffffffffffffffffffff16021790555050565b61074c611008565b73ffffffffffffffffffffffffffffffffffffffff1661076a610cf8565b73ffffffffffffffffffffffffffffffffffffffff16146107c0576040517f08c379a00000000000000000000000000000000000000000000000000000000081526004016107b7906121b5565b60405180910390fd5b6107ca6000611010565b565b609b60009054906101000a900473ffffffffffffffffffffffffffffffffffffffff1673ffffffffffffffffffffffffffffffffffffffff1661080e82610672565b73ffffffffffffffffffffffffffffffffffffffff1614610864576040517f08c379a000000000000000000000000000000000000000000000000000000000815260040161085b90612135565b60405180910390fd5b806000015173ffffffffffffffffffffffffffffffffffffffff163373ffffffffffffffffffffffffffffffffffffffff16146108d6576040517f08c379a00000000000000000000000000000000000000000000000000000000081526004016108cd90612175565b60405180910390fd5b6001609d60003373ffffffffffffffffffffffffffffffffffffffff1673ffffffffffffffffffffffffffffffffffffffff1681526020019081526020016000206000836020015173ffffffffffffffffffffffffffffffffffffffff1673ffffffffffffffffffffffffffffffffffffffff168152602001908152602001600020600082825461096791906122a2565b925050819055508060a00151609c60003373ffffffffffffffffffffffffffffffffffffffff1673ffffffffffffffffffffffffffffffffffffffff1681526020019081526020016000206000609d60003373ffffffffffffffffffffffffffffffffffffffff1673ffffffffffffffffffffffffffffffffffffffff1681526020019081526020016000206000856020015173ffffffffffffffffffffffffffffffffffffffff1673ffffffffffffffffffffffffffffffffffffffff16815260200190815260200160002054815260200190815260200160002081905550609960009054906101000a900473ffffffffffffffffffffffffffffffffffffffff1673ffffffffffffffffffffffffffffffffffffffff166323b872dd33308460a001516040518463ffffffff1660e01b8152600401610aaa93929190611f2e565b602060405180830381600087803b158015610ac457600080fd5b505af1158015610ad8573d6000803e3d6000fd5b505050506040513d601f19601f82011682018060405250810190610afc9190611bf5565b50609a60009054906101000a900473ffffffffffffffffffffffffffffffffffffffff1673ffffffffffffffffffffffffffffffffffffffff1663be87acb1338360a001516040518363ffffffff1660e01b8152600401610b5e929190611f65565b600060405180830381600087803b158015610b7857600080fd5b505af1158015610b8c573d6000803e3d6000fd5b50505050806020015173ffffffffffffffffffffffffffffffffffffffff16816000015173ffffffffffffffffffffffffffffffffffffffff167f8752a472e571a816aea92eec8dae9baf628e840f4929fbcc2d155e6233ff68a78360a00151604051610bf99190612215565b60405180910390a350565b600060019054906101000a900460ff16610c2c5760008054906101000a900460ff1615610c35565b610c346110d6565b5b610c74576040517f08c379a0000000000000000000000000000000000000000000000000000000008152600401610c6b90612155565b60405180910390fd5b60008060019054906101000a900460ff161590508015610cc4576001600060016101000a81548160ff02191690831515021790555060016000806101000a81548160ff0219169083151502179055505b610ccc6110e7565b610cd461115d565b8015610cf55760008060016101000a81548160ff0219169083151502179055505b50565b6000606760009054906101000a900473ffffffffffffffffffffffffffffffffffffffff16905090565b609c602052816000526040600020602052806000526040600020600091509150505481565b609d602052816000526040600020602052806000526040600020600091509150505481565b610d74611008565b73ffffffffffffffffffffffffffffffffffffffff16610d92610cf8565b73ffffffffffffffffffffffffffffffffffffffff1614610de8576040517f08c379a0000000000000000000000000000000000000000000000000000000008152600401610ddf906121b5565b60405180910390fd5b80609a60006101000a81548173ffffffffffffffffffffffffffffffffffffffff021916908373ffffffffffffffffffffffffffffffffffffffff16021790555050565b610e34611008565b73ffffffffffffffffffffffffffffffffffffffff16610e52610cf8565b73ffffffffffffffffffffffffffffffffffffffff1614610ea8576040517f08c379a0000000000000000000000000000000000000000000000000000000008152600401610e9f906121b5565b60405180910390fd5b80609b60006101000a81548173ffffffffffffffffffffffffffffffffffffffff021916908373ffffffffffffffffffffffffffffffffffffffff16021790555050565b610ef4611008565b73ffffffffffffffffffffffffffffffffffffffff16610f12610cf8565b73ffffffffffffffffffffffffffffffffffffffff1614610f68576040517f08c379a0000000000000000000000000000000000000000000000000000000008152600401610f5f906121b5565b60405180910390fd5b600073ffffffffffffffffffffffffffffffffffffffff168173ffffffffffffffffffffffffffffffffffffffff161415610fd8576040517f08c379a0000000000000000000000000000000000000000000000000000000008152600401610fcf906120d5565b60405180910390fd5b610fe181611010565b50565b600080610ff0836111b6565b9050611000818460c00151611232565b915050919050565b600033905090565b6000606760009054906101000a900473ffffffffffffffffffffffffffffffffffffffff16905081606760006101000a81548173ffffffffffffffffffffffffffffffffffffffff021916908373ffffffffffffffffffffffffffffffffffffffff1602179055508173ffffffffffffffffffffffffffffffffffffffff168173ffffffffffffffffffffffffffffffffffffffff167f8be0079c531659141344cd1fd0a4f28419497f9722a3daafe3b4186f6b6457e060405160405180910390a35050565b60006110e130611259565b15905090565b61115b6040518060400160405280600481526020017f434f4245000000000000000000000000000000000000000000000000000000008152506040518060400160405280600181526020017f310000000000000000000000000000000000000000000000000000000000000081525061127c565b565b600060019054906101000a900460ff166111ac576040517f08c379a00000000000000000000000000000000000000000000000000000000081526004016111a3906121f5565b60405180910390fd5b6111b46112d9565b565b600061122b7fc321b07044129420c1b0d553e77b81bdf6a1ed776902eea5b6c8df2b2f65ac5f836000015184602001518560400151866060015187608001518860a001516040516020016112109796959493929190611f8e565b6040516020818303038152906040528051906020012061133a565b9050919050565b60008060006112418585611354565b9150915061124e816113d7565b819250505092915050565b6000808273ffffffffffffffffffffffffffffffffffffffff163b119050919050565b600060019054906101000a900460ff166112cb576040517f08c379a00000000000000000000000000000000000000000000000000000000081526004016112c2906121f5565b60405180910390fd5b6112d58282611728565b5050565b600060019054906101000a900460ff16611328576040517f08c379a000000000000000000000000000000000000000000000000000000000815260040161131f906121f5565b60405180910390fd5b611338611333611008565b611010565b565b600061134d6113476117a3565b836117e3565b9050919050565b6000806041835114156113965760008060006020860151925060408601519150606086015160001a905061138a87828585611816565b945094505050506113d0565b6040835114156113c75760008060208501519150604085015190506113bc868383611923565b9350935050506113d0565b60006002915091505b9250929050565b60006004811115611411577f4e487b7100000000000000000000000000000000000000000000000000000000600052602160045260246000fd5b81600481111561144a577f4e487b7100000000000000000000000000000000000000000000000000000000600052602160045260246000fd5b141561145557611725565b6001600481111561148f577f4e487b7100000000000000000000000000000000000000000000000000000000600052602160045260246000fd5b8160048111156114c8577f4e487b7100000000000000000000000000000000000000000000000000000000600052602160045260246000fd5b1415611509576040517f08c379a000000000000000000000000000000000000000000000000000000000815260040161150090612095565b60405180910390fd5b60026004811115611543577f4e487b7100000000000000000000000000000000000000000000000000000000600052602160045260246000fd5b81600481111561157c577f4e487b7100000000000000000000000000000000000000000000000000000000600052602160045260246000fd5b14156115bd576040517f08c379a00000000000000000000000000000000000000000000000000000000081526004016115b4906120b5565b60405180910390fd5b600360048111156115f7577f4e487b7100000000000000000000000000000000000000000000000000000000600052602160045260246000fd5b816004811115611630577f4e487b7100000000000000000000000000000000000000000000000000000000600052602160045260246000fd5b1415611671576040517f08c379a0000000000000000000000000000000000000000000000000000000008152600401611668906120f5565b60405180910390fd5b6004808111156116aa577f4e487b7100000000000000000000000000000000000000000000000000000000600052602160045260246000fd5b8160048111156116e3577f4e487b7100000000000000000000000000000000000000000000000000000000600052602160045260246000fd5b1415611724576040517f08c379a000000000000000000000000000000000000000000000000000000000815260040161171b90612195565b60405180910390fd5b5b50565b600060019054906101000a900460ff16611777576040517f08c379a000000000000000000000000000000000000000000000000000000000815260040161176e906121f5565b60405180910390fd5b600082805190602001209050600082805190602001209050816001819055508060028190555050505050565b60006117de7f8b73c3c69bb8fe3d512ecc4cf759cc79239f7b179b0ffacaa9a75d522b39400f6117d1611982565b6117d961198c565b611996565b905090565b600082826040516020016117f8929190611edc565b60405160208183030381529060405280519060200120905092915050565b6000807f7fffffffffffffffffffffffffffffff5d576e7357a4501ddfe92f46681b20a08360001c111561185157600060039150915061191a565b601b8560ff16141580156118695750601c8560ff1614155b1561187b57600060049150915061191a565b6000600187878787604051600081526020016040526040516118a09493929190612050565b6020604051602081039080840390855afa1580156118c2573d6000803e3d6000fd5b505050602060405103519050600073ffffffffffffffffffffffffffffffffffffffff168173ffffffffffffffffffffffffffffffffffffffff1614156119115760006001925092505061191a565b80600092509250505b94509492505050565b60008060007f7fffffffffffffffffffffffffffffffffffffffffffffffffffffffffffffff60001b841690506000601b60ff8660001c901c61196691906122a2565b905061197487828885611816565b935093505050935093915050565b6000600154905090565b6000600254905090565b600083838346306040516020016119b1959493929190611ffd565b6040516020818303038152906040528051906020012090509392505050565b60006119e36119de84612255565b612230565b9050828152602081018484840111156119fb57600080fd5b611a06848285612357565b509392505050565b600081359050611a1d816126e3565b92915050565b600081359050611a32816126fa565b92915050565b600081519050611a47816126fa565b92915050565b600082601f830112611a5e57600080fd5b8135611a6e8482602086016119d0565b91505092915050565b600060e08284031215611a8957600080fd5b611a9360e0612230565b90506000611aa384828501611a0e565b6000830152506020611ab784828501611a0e565b6020830152506040611acb84828501611a23565b6040830152506060611adf84828501611b3f565b6060830152506080611af384828501611b3f565b60808301525060a0611b0784828501611b3f565b60a08301525060c082013567ffffffffffffffff811115611b2757600080fd5b611b3384828501611a4d565b60c08301525092915050565b600081359050611b4e81612711565b92915050565b600060208284031215611b6657600080fd5b6000611b7484828501611a0e565b91505092915050565b60008060408385031215611b9057600080fd5b6000611b9e85828601611a0e565b9250506020611baf85828601611a0e565b9150509250929050565b60008060408385031215611bcc57600080fd5b6000611bda85828601611a0e565b9250506020611beb85828601611b3f565b9150509250929050565b600060208284031215611c0757600080fd5b6000611c1584828501611a38565b91505092915050565b600060208284031215611c3057600080fd5b600082013567ffffffffffffffff811115611c4a57600080fd5b611c5684828501611a77565b91505092915050565b60008060408385031215611c7257600080fd5b600083013567ffffffffffffffff811115611c8c57600080fd5b611c9885828601611a77565b9250506020611ca985828601611b3f565b9150509250929050565b611cbc816122f8565b82525050565b611ccb8161230a565b82525050565b611cda81612316565b82525050565b611cf1611cec82612316565b612397565b82525050565b6000611d04601883612286565b9150611d0f82612410565b602082019050919050565b6000611d27601f83612286565b9150611d3282612439565b602082019050919050565b6000611d4a602683612286565b9150611d5582612462565b604082019050919050565b6000611d6d600283612297565b9150611d78826124b1565b600282019050919050565b6000611d90602283612286565b9150611d9b826124da565b604082019050919050565b6000611db3601383612286565b9150611dbe82612529565b602082019050919050565b6000611dd6600783612286565b9150611de182612552565b602082019050919050565b6000611df9602e83612286565b9150611e048261257b565b604082019050919050565b6000611e1c600983612286565b9150611e27826125ca565b602082019050919050565b6000611e3f602283612286565b9150611e4a826125f3565b604082019050919050565b6000611e62602083612286565b9150611e6d82612642565b602082019050919050565b6000611e85600883612286565b9150611e908261266b565b602082019050919050565b6000611ea8602b83612286565b9150611eb382612694565b604082019050919050565b611ec781612340565b82525050565b611ed68161234a565b82525050565b6000611ee782611d60565b9150611ef38285611ce0565b602082019150611f038284611ce0565b6020820191508190509392505050565b6000602082019050611f286000830184611cb3565b92915050565b6000606082019050611f436000830186611cb3565b611f506020830185611cb3565b611f5d6040830184611ebe565b949350505050565b6000604082019050611f7a6000830185611cb3565b611f876020830184611ebe565b9392505050565b600060e082019050611fa3600083018a611cd1565b611fb06020830189611cb3565b611fbd6040830188611cb3565b611fca6060830187611cc2565b611fd76080830186611ebe565b611fe460a0830185611ebe565b611ff160c0830184611ebe565b98975050505050505050565b600060a0820190506120126000830188611cd1565b61201f6020830187611cd1565b61202c6040830186611cd1565b6120396060830185611ebe565b6120466080830184611cb3565b9695505050505050565b60006080820190506120656000830187611cd1565b6120726020830186611ecd565b61207f6040830185611cd1565b61208c6060830184611cd1565b95945050505050565b600060208201905081810360008301526120ae81611cf7565b9050919050565b600060208201905081810360008301526120ce81611d1a565b9050919050565b600060208201905081810360008301526120ee81611d3d565b9050919050565b6000602082019050818103600083015261210e81611d83565b9050919050565b6000602082019050818103600083015261212e81611da6565b9050919050565b6000602082019050818103600083015261214e81611dc9565b9050919050565b6000602082019050818103600083015261216e81611dec565b9050919050565b6000602082019050818103600083015261218e81611e0f565b9050919050565b600060208201905081810360008301526121ae81611e32565b9050919050565b600060208201905081810360008301526121ce81611e55565b9050919050565b600060208201905081810360008301526121ee81611e78565b9050919050565b6000602082019050818103600083015261220e81611e9b565b9050919050565b600060208201905061222a6000830184611ebe565b92915050565b600061223a61224b565b90506122468282612366565b919050565b6000604051905090565b600067ffffffffffffffff8211156122705761226f6123d0565b5b612279826123ff565b9050602081019050919050565b600082825260208201905092915050565b600081905092915050565b60006122ad82612340565b91506122b883612340565b9250827fffffffffffffffffffffffffffffffffffffffffffffffffffffffffffffffff038211156122ed576122ec6123a1565b5b828201905092915050565b600061230382612320565b9050919050565b60008115159050919050565b6000819050919050565b600073ffffffffffffffffffffffffffffffffffffffff82169050919050565b6000819050919050565b600060ff82169050919050565b82818337600083830152505050565b61236f826123ff565b810181811067ffffffffffffffff8211171561238e5761238d6123d0565b5b80604052505050565b6000819050919050565b7f4e487b7100000000000000000000000000000000000000000000000000000000600052601160045260246000fd5b7f4e487b7100000000000000000000000000000000000000000000000000000000600052604160045260246000fd5b6000601f19601f8301169050919050565b7f45434453413a20696e76616c6964207369676e61747572650000000000000000600082015250565b7f45434453413a20696e76616c6964207369676e6174757265206c656e67746800600082015250565b7f4f776e61626c653a206e6577206f776e657220697320746865207a65726f206160008201527f6464726573730000000000000000000000000000000000000000000000000000602082015250565b7f1901000000000000000000000000000000000000000000000000000000000000600082015250565b7f45434453413a20696e76616c6964207369676e6174757265202773272076616c60008201527f7565000000000000000000000000000000000000000000000000000000000000602082015250565b7f496e73756666696369656e7420416d6f756e7400000000000000000000000000600082015250565b7f215369676e657200000000000000000000000000000000000000000000000000600082015250565b7f496e697469616c697a61626c653a20636f6e747261637420697320616c72656160008201527f647920696e697469616c697a6564000000000000000000000000000000000000602082015250565b7f2145787065637465640000000000000000000000000000000000000000000000600082015250565b7f45434453413a20696e76616c6964207369676e6174757265202776272076616c60008201527f7565000000000000000000000000000000000000000000000000000000000000602082015250565b7f4f776e61626c653a2063616c6c6572206973206e6f7420746865206f776e6572600082015250565b7f21416c6c6f776564000000000000000000000000000000000000000000000000600082015250565b7f496e697469616c697a61626c653a20636f6e7472616374206973206e6f74206960008201527f6e697469616c697a696e67000000000000000000000000000000000000000000602082015250565b6126ec816122f8565b81146126f757600080fd5b50565b6127038161230a565b811461270e57600080fd5b50565b61271a81612340565b811461272557600080fd5b5056fea26469706673582212202b0fcf51d640373128740eda7153cf4bb2b6548a3d9a1c11c9396cbfb44f4e7464736f6c63430008040033",
  "linkReferences": {},
  "deployedLinkReferences": {}
}