{
  "_format": "hh-sol-artifact-1",
  "contractName": "CBR",
  "sourceName": "contracts/CBR.sol",
  "abi": [
    {
      "inputs": [],
      "stateMutability": "nonpayable",
      "type": "constructor"
    },
    {
      "anonymous": false,
      "inputs": [
        {
          "indexed": true,
          "internalType": "address",
          "name": "owner",
          "type": "address"
        },
        {
          "indexed": true,
          "internalType": "address",
          "name": "spender",
          "type": "address"
        },
        {
          "indexed": false,
          "internalType": "uint256",
          "name": "value",
          "type": "uint256"
        }
      ],
      "name": "Approval",
      "type": "event"
    },
    {
      "anonymous": false,
      "inputs": [
        {
          "indexed": true,
          "internalType": "address",
          "name": "previousOwner",
          "type": "address"
        },
        {
          "indexed": true,
          "internalType": "address",
          "name": "newOwner",
          "type": "address"
        }
      ],
      "name": "OwnershipTransferred",
      "type": "event"
    },
    {
      "anonymous": false,
      "inputs": [
        {
          "indexed": true,
          "internalType": "address",
          "name": "from",
          "type": "address"
        },
        {
          "indexed": true,
          "internalType": "address",
          "name": "to",
          "type": "address"
        },
        {
          "indexed": false,
          "internalType": "uint256",
          "name": "value",
          "type": "uint256"
        }
      ],
      "name": "Transfer",
      "type": "event"
    },
    {
      "inputs": [
        {
          "internalType": "address",
          "name": "",
          "type": "address"
        }
      ],
      "name": "accessControllers",
      "outputs": [
        {
          "internalType": "bool",
          "name": "",
          "type": "bool"
        }
      ],
      "stateMutability": "view",
      "type": "function"
    },
    {
      "inputs": [
        {
          "internalType": "address",
          "name": "owner",
          "type": "address"
        },
        {
          "internalType": "address",
          "name": "spender",
          "type": "address"
        }
      ],
      "name": "allowance",
      "outputs": [
        {
          "internalType": "uint256",
          "name": "",
          "type": "uint256"
        }
      ],
      "stateMutability": "view",
      "type": "function"
    },
    {
      "inputs": [
        {
          "internalType": "address",
          "name": "spender",
          "type": "address"
        },
        {
          "internalType": "uint256",
          "name": "amount",
          "type": "uint256"
        }
      ],
      "name": "approve",
      "outputs": [
        {
          "internalType": "bool",
          "name": "",
          "type": "bool"
        }
      ],
      "stateMutability": "nonpayable",
      "type": "function"
    },
    {
      "inputs": [
        {
          "internalType": "address",
          "name": "account",
          "type": "address"
        }
      ],
      "name": "balanceOf",
      "outputs": [
        {
          "internalType": "uint256",
          "name": "",
          "type": "uint256"
        }
      ],
      "stateMutability": "view",
      "type": "function"
    },
    {
      "inputs": [
        {
          "internalType": "address",
          "name": "user",
          "type": "address"
        },
        {
          "internalType": "uint256",
          "name": "_amount",
          "type": "uint256"
        }
      ],
      "name": "burnCBRFromPartnerControllers",
      "outputs": [],
      "stateMutability": "nonpayable",
      "type": "function"
    },
    {
      "inputs": [],
      "name": "decimals",
      "outputs": [
        {
          "internalType": "uint8",
          "name": "",
          "type": "uint8"
        }
      ],
      "stateMutability": "view",
      "type": "function"
    },
    {
      "inputs": [
        {
          "internalType": "address",
          "name": "spender",
          "type": "address"
        },
        {
          "internalType": "uint256",
          "name": "subtractedValue",
          "type": "uint256"
        }
      ],
      "name": "decreaseAllowance",
      "outputs": [
        {
          "internalType": "bool",
          "name": "",
          "type": "bool"
        }
      ],
      "stateMutability": "nonpayable",
      "type": "function"
    },
    {
      "inputs": [
        {
          "internalType": "address",
          "name": "spender",
          "type": "address"
        },
        {
          "internalType": "uint256",
          "name": "addedValue",
          "type": "uint256"
        }
      ],
      "name": "increaseAllowance",
      "outputs": [
        {
          "internalType": "bool",
          "name": "",
          "type": "bool"
        }
      ],
      "stateMutability": "nonpayable",
      "type": "function"
    },
    {
      "inputs": [
        {
          "internalType": "address",
          "name": "user",
          "type": "address"
        },
        {
          "internalType": "uint256",
          "name": "_amount",
          "type": "uint256"
        }
      ],
      "name": "mintExactToken",
      "outputs": [],
      "stateMutability": "nonpayable",
      "type": "function"
    },
    {
      "inputs": [],
      "name": "name",
      "outputs": [
        {
          "internalType": "string",
          "name": "",
          "type": "string"
        }
      ],
      "stateMutability": "view",
      "type": "function"
    },
    {
      "inputs": [],
      "name": "owner",
      "outputs": [
        {
          "internalType": "address",
          "name": "",
          "type": "address"
        }
      ],
      "stateMutability": "view",
      "type": "function"
    },
    {
      "inputs": [],
      "name": "renounceOwnership",
      "outputs": [],
      "stateMutability": "nonpayable",
      "type": "function"
    },
    {
      "inputs": [
        {
          "internalType": "address",
          "name": "_controllers",
          "type": "address"
        }
      ],
      "name": "setAccessControllers",
      "outputs": [],
      "stateMutability": "nonpayable",
      "type": "function"
    },
    {
      "inputs": [],
      "name": "symbol",
      "outputs": [
        {
          "internalType": "string",
          "name": "",
          "type": "string"
        }
      ],
      "stateMutability": "view",
      "type": "function"
    },
    {
      "inputs": [],
      "name": "totalSupply",
      "outputs": [
        {
          "internalType": "uint256",
          "name": "",
          "type": "uint256"
        }
      ],
      "stateMutability": "view",
      "type": "function"
    },
    {
      "inputs": [
        {
          "internalType": "address",
          "name": "to",
          "type": "address"
        },
        {
          "internalType": "uint256",
          "name": "amount",
          "type": "uint256"
        }
      ],
      "name": "transfer",
      "outputs": [
        {
          "internalType": "bool",
          "name": "",
          "type": "bool"
        }
      ],
      "stateMutability": "nonpayable",
      "type": "function"
    },
    {
      "inputs": [
        {
          "internalType": "address",
          "name": "from",
          "type": "address"
        },
        {
          "internalType": "address",
          "name": "to",
          "type": "address"
        },
        {
          "internalType": "uint256",
          "name": "amount",
          "type": "uint256"
        }
      ],
      "name": "transferFrom",
      "outputs": [
        {
          "internalType": "bool",
          "name": "",
          "type": "bool"
        }
      ],
      "stateMutability": "nonpayable",
      "type": "function"
    },
    {
      "inputs": [
        {
          "internalType": "address",
          "name": "newOwner",
          "type": "address"
        }
      ],
      "name": "transferOwnership",
      "outputs": [],
      "stateMutability": "nonpayable",
      "type": "function"
    }
  ],
  "bytecode": "0x60806040523480156200001157600080fd5b506040518060400160405280601081526020017f434f42455f52656465656d5f436f696e000000000000000000000000000000008152506040518060400160405280600381526020017f4342520000000000000000000000000000000000000000000000000000000000815250816003908051906020019062000096929190620001a6565b508060049080519060200190620000af929190620001a6565b505050620000d2620000c6620000d860201b60201c565b620000e060201b60201c565b620002bb565b600033905090565b6000600560009054906101000a900473ffffffffffffffffffffffffffffffffffffffff16905081600560006101000a81548173ffffffffffffffffffffffffffffffffffffffff021916908373ffffffffffffffffffffffffffffffffffffffff1602179055508173ffffffffffffffffffffffffffffffffffffffff168173ffffffffffffffffffffffffffffffffffffffff167f8be0079c531659141344cd1fd0a4f28419497f9722a3daafe3b4186f6b6457e060405160405180910390a35050565b828054620001b49062000256565b90600052602060002090601f016020900481019282620001d8576000855562000224565b82601f10620001f357805160ff191683800117855562000224565b8280016001018555821562000224579182015b828111156200022357825182559160200191906001019062000206565b5b50905062000233919062000237565b5090565b5b808211156200025257600081600090555060010162000238565b5090565b600060028204905060018216806200026f57607f821691505b602082108114156200028657620002856200028c565b5b50919050565b7f4e487b7100000000000000000000000000000000000000000000000000000000600052602260045260246000fd5b61201480620002cb6000396000f3fe608060405234801561001057600080fd5b50600436106101165760003560e01c80638da5cb5b116100a2578063be87acb111610071578063be87acb1146102f7578063bf0ea57714610313578063dd62ed3e1461032f578063f2fde38b1461035f578063f58856b91461037b57610116565b80638da5cb5b1461025b57806395d89b4114610279578063a457c2d714610297578063a9059cbb146102c757610116565b8063313ce567116100e9578063313ce567146101b757806339509351146101d557806370a0823114610205578063715018a6146102355780637a007fdd1461023f57610116565b806306fdde031461011b578063095ea7b31461013957806318160ddd1461016957806323b872dd14610187575b600080fd5b6101236103ab565b6040516101309190611835565b60405180910390f35b610153600480360381019061014e9190611564565b61043d565b604051610160919061181a565b60405180910390f35b610171610460565b60405161017e9190611a17565b60405180910390f35b6101a1600480360381019061019c9190611515565b61046a565b6040516101ae919061181a565b60405180910390f35b6101bf610499565b6040516101cc9190611a32565b60405180910390f35b6101ef60048036038101906101ea9190611564565b6104a2565b6040516101fc919061181a565b60405180910390f35b61021f600480360381019061021a91906114b0565b61054c565b60405161022c9190611a17565b60405180910390f35b61023d610594565b005b610259600480360381019061025491906114b0565b61061c565b005b6102636106f3565b60405161027091906117ff565b60405180910390f35b61028161071d565b60405161028e9190611835565b60405180910390f35b6102b160048036038101906102ac9190611564565b6107af565b6040516102be919061181a565b60405180910390f35b6102e160048036038101906102dc9190611564565b610899565b6040516102ee919061181a565b60405180910390f35b610311600480360381019061030c9190611564565b6108bc565b005b61032d60048036038101906103289190611564565b6108ca565b005b610349600480360381019061034491906114d9565b610964565b6040516103569190611a17565b60405180910390f35b610379600480360381019061037491906114b0565b6109eb565b005b610395600480360381019061039091906114b0565b610ae3565b6040516103a2919061181a565b60405180910390f35b6060600380546103ba90611b7b565b80601f01602080910402602001604051908101604052809291908181526020018280546103e690611b7b565b80156104335780601f1061040857610100808354040283529160200191610433565b820191906000526020600020905b81548152906001019060200180831161041657829003601f168201915b5050505050905090565b600080610448610b03565b9050610455818585610b0b565b600191505092915050565b6000600254905090565b600080610475610b03565b9050610482858285610cd6565b61048d858585610d62565b60019150509392505050565b60006012905090565b6000806104ad610b03565b9050610541818585600160008673ffffffffffffffffffffffffffffffffffffffff1673ffffffffffffffffffffffffffffffffffffffff16815260200190815260200160002060008973ffffffffffffffffffffffffffffffffffffffff1673ffffffffffffffffffffffffffffffffffffffff1681526020019081526020016000205461053c9190611a69565b610b0b565b600191505092915050565b60008060008373ffffffffffffffffffffffffffffffffffffffff1673ffffffffffffffffffffffffffffffffffffffff168152602001908152602001600020549050919050565b61059c610b03565b73ffffffffffffffffffffffffffffffffffffffff166105ba6106f3565b73ffffffffffffffffffffffffffffffffffffffff1614610610576040517f08c379a000000000000000000000000000000000000000000000000000000000815260040161060790611957565b60405180910390fd5b61061a6000610fe3565b565b610624610b03565b73ffffffffffffffffffffffffffffffffffffffff166106426106f3565b73ffffffffffffffffffffffffffffffffffffffff1614610698576040517f08c379a000000000000000000000000000000000000000000000000000000000815260040161068f90611957565b60405180910390fd5b6001600660008373ffffffffffffffffffffffffffffffffffffffff1673ffffffffffffffffffffffffffffffffffffffff16815260200190815260200160002060006101000a81548160ff02191690831515021790555050565b6000600560009054906101000a900473ffffffffffffffffffffffffffffffffffffffff16905090565b60606004805461072c90611b7b565b80601f016020809104026020016040519081016040528092919081815260200182805461075890611b7b565b80156107a55780601f1061077a576101008083540402835291602001916107a5565b820191906000526020600020905b81548152906001019060200180831161078857829003601f168201915b5050505050905090565b6000806107ba610b03565b90506000600160008373ffffffffffffffffffffffffffffffffffffffff1673ffffffffffffffffffffffffffffffffffffffff16815260200190815260200160002060008673ffffffffffffffffffffffffffffffffffffffff1673ffffffffffffffffffffffffffffffffffffffff16815260200190815260200160002054905083811015610880576040517f08c379a0000000000000000000000000000000000000000000000000000000008152600401610877906119d7565b60405180910390fd5b61088d8286868403610b0b565b60019250505092915050565b6000806108a4610b03565b90506108b1818585610d62565b600191505092915050565b6108c682826110a9565b5050565b600660003373ffffffffffffffffffffffffffffffffffffffff1673ffffffffffffffffffffffffffffffffffffffff16815260200190815260200160002060009054906101000a900460ff16610956576040517f08c379a000000000000000000000000000000000000000000000000000000000815260040161094d906118d7565b60405180910390fd5b6109608282611209565b5050565b6000600160008473ffffffffffffffffffffffffffffffffffffffff1673ffffffffffffffffffffffffffffffffffffffff16815260200190815260200160002060008373ffffffffffffffffffffffffffffffffffffffff1673ffffffffffffffffffffffffffffffffffffffff16815260200190815260200160002054905092915050565b6109f3610b03565b73ffffffffffffffffffffffffffffffffffffffff16610a116106f3565b73ffffffffffffffffffffffffffffffffffffffff1614610a67576040517f08c379a0000000000000000000000000000000000000000000000000000000008152600401610a5e90611957565b60405180910390fd5b600073ffffffffffffffffffffffffffffffffffffffff168173ffffffffffffffffffffffffffffffffffffffff161415610ad7576040517f08c379a0000000000000000000000000000000000000000000000000000000008152600401610ace90611897565b60405180910390fd5b610ae081610fe3565b50565b60066020528060005260406000206000915054906101000a900460ff1681565b600033905090565b600073ffffffffffffffffffffffffffffffffffffffff168373ffffffffffffffffffffffffffffffffffffffff161415610b7b576040517f08c379a0000000000000000000000000000000000000000000000000000000008152600401610b72906119b7565b60405180910390fd5b600073ffffffffffffffffffffffffffffffffffffffff168273ffffffffffffffffffffffffffffffffffffffff161415610beb576040517f08c379a0000000000000000000000000000000000000000000000000000000008152600401610be2906118b7565b60405180910390fd5b80600160008573ffffffffffffffffffffffffffffffffffffffff1673ffffffffffffffffffffffffffffffffffffffff16815260200190815260200160002060008473ffffffffffffffffffffffffffffffffffffffff1673ffffffffffffffffffffffffffffffffffffffff168152602001908152602001600020819055508173ffffffffffffffffffffffffffffffffffffffff168373ffffffffffffffffffffffffffffffffffffffff167f8c5be1e5ebec7d5bd14f71427d1e84f3dd0314c0f7b2291e5b200ac8c7c3b92583604051610cc99190611a17565b60405180910390a3505050565b6000610ce28484610964565b90507fffffffffffffffffffffffffffffffffffffffffffffffffffffffffffffffff8114610d5c5781811015610d4e576040517f08c379a0000000000000000000000000000000000000000000000000000000008152600401610d45906118f7565b60405180910390fd5b610d5b8484848403610b0b565b5b50505050565b600073ffffffffffffffffffffffffffffffffffffffff168373ffffffffffffffffffffffffffffffffffffffff161415610dd2576040517f08c379a0000000000000000000000000000000000000000000000000000000008152600401610dc990611997565b60405180910390fd5b600073ffffffffffffffffffffffffffffffffffffffff168273ffffffffffffffffffffffffffffffffffffffff161415610e42576040517f08c379a0000000000000000000000000000000000000000000000000000000008152600401610e3990611857565b60405180910390fd5b610e4d8383836113e0565b60008060008573ffffffffffffffffffffffffffffffffffffffff1673ffffffffffffffffffffffffffffffffffffffff16815260200190815260200160002054905081811015610ed3576040517f08c379a0000000000000000000000000000000000000000000000000000000008152600401610eca90611917565b60405180910390fd5b8181036000808673ffffffffffffffffffffffffffffffffffffffff1673ffffffffffffffffffffffffffffffffffffffff16815260200190815260200160002081905550816000808573ffffffffffffffffffffffffffffffffffffffff1673ffffffffffffffffffffffffffffffffffffffff1681526020019081526020016000206000828254610f669190611a69565b925050819055508273ffffffffffffffffffffffffffffffffffffffff168473ffffffffffffffffffffffffffffffffffffffff167fddf252ad1be2c89b69c2b068fc378daa952ba7f163c4a11628f55a4df523b3ef84604051610fca9190611a17565b60405180910390a3610fdd84848461147c565b50505050565b6000600560009054906101000a900473ffffffffffffffffffffffffffffffffffffffff16905081600560006101000a81548173ffffffffffffffffffffffffffffffffffffffff021916908373ffffffffffffffffffffffffffffffffffffffff1602179055508173ffffffffffffffffffffffffffffffffffffffff168173ffffffffffffffffffffffffffffffffffffffff167f8be0079c531659141344cd1fd0a4f28419497f9722a3daafe3b4186f6b6457e060405160405180910390a35050565b600073ffffffffffffffffffffffffffffffffffffffff168273ffffffffffffffffffffffffffffffffffffffff161415611119576040517f08c379a0000000000000000000000000000000000000000000000000000000008152600401611110906119f7565b60405180910390fd5b611125600083836113e0565b80600260008282546111379190611a69565b92505081905550806000808473ffffffffffffffffffffffffffffffffffffffff1673ffffffffffffffffffffffffffffffffffffffff168152602001908152602001600020600082825461118c9190611a69565b925050819055508173ffffffffffffffffffffffffffffffffffffffff16600073ffffffffffffffffffffffffffffffffffffffff167fddf252ad1be2c89b69c2b068fc378daa952ba7f163c4a11628f55a4df523b3ef836040516111f19190611a17565b60405180910390a36112056000838361147c565b5050565b600073ffffffffffffffffffffffffffffffffffffffff168273ffffffffffffffffffffffffffffffffffffffff161415611279576040517f08c379a000000000000000000000000000000000000000000000000000000000815260040161127090611977565b60405180910390fd5b611285826000836113e0565b60008060008473ffffffffffffffffffffffffffffffffffffffff1673ffffffffffffffffffffffffffffffffffffffff1681526020019081526020016000205490508181101561130b576040517f08c379a000000000000000000000000000000000000000000000000000000000815260040161130290611877565b60405180910390fd5b8181036000808573ffffffffffffffffffffffffffffffffffffffff1673ffffffffffffffffffffffffffffffffffffffff1681526020019081526020016000208190555081600260008282546113629190611abf565b92505081905550600073ffffffffffffffffffffffffffffffffffffffff168373ffffffffffffffffffffffffffffffffffffffff167fddf252ad1be2c89b69c2b068fc378daa952ba7f163c4a11628f55a4df523b3ef846040516113c79190611a17565b60405180910390a36113db8360008461147c565b505050565b600660003373ffffffffffffffffffffffffffffffffffffffff1673ffffffffffffffffffffffffffffffffffffffff16815260200190815260200160002060009054906101000a900460ff1661146c576040517f08c379a000000000000000000000000000000000000000000000000000000000815260040161146390611937565b60405180910390fd5b611477838383611481565b505050565b505050565b505050565b60008135905061149581611fb0565b92915050565b6000813590506114aa81611fc7565b92915050565b6000602082840312156114c257600080fd5b60006114d084828501611486565b91505092915050565b600080604083850312156114ec57600080fd5b60006114fa85828601611486565b925050602061150b85828601611486565b9150509250929050565b60008060006060848603121561152a57600080fd5b600061153886828701611486565b935050602061154986828701611486565b925050604061155a8682870161149b565b9150509250925092565b6000806040838503121561157757600080fd5b600061158585828601611486565b92505060206115968582860161149b565b9150509250929050565b6115a981611af3565b82525050565b6115b881611b05565b82525050565b60006115c982611a4d565b6115d38185611a58565b93506115e3818560208601611b48565b6115ec81611c0b565b840191505092915050565b6000611604602383611a58565b915061160f82611c1c565b604082019050919050565b6000611627602283611a58565b915061163282611c6b565b604082019050919050565b600061164a602683611a58565b915061165582611cba565b604082019050919050565b600061166d602283611a58565b915061167882611d09565b604082019050919050565b6000611690600b83611a58565b915061169b82611d58565b602082019050919050565b60006116b3601d83611a58565b91506116be82611d81565b602082019050919050565b60006116d6602683611a58565b91506116e182611daa565b604082019050919050565b60006116f9601d83611a58565b915061170482611df9565b602082019050919050565b600061171c602083611a58565b915061172782611e22565b602082019050919050565b600061173f602183611a58565b915061174a82611e4b565b604082019050919050565b6000611762602583611a58565b915061176d82611e9a565b604082019050919050565b6000611785602483611a58565b915061179082611ee9565b604082019050919050565b60006117a8602583611a58565b91506117b382611f38565b604082019050919050565b60006117cb601f83611a58565b91506117d682611f87565b602082019050919050565b6117ea81611b31565b82525050565b6117f981611b3b565b82525050565b600060208201905061181460008301846115a0565b92915050565b600060208201905061182f60008301846115af565b92915050565b6000602082019050818103600083015261184f81846115be565b905092915050565b60006020820190508181036000830152611870816115f7565b9050919050565b600060208201905081810360008301526118908161161a565b9050919050565b600060208201905081810360008301526118b08161163d565b9050919050565b600060208201905081810360008301526118d081611660565b9050919050565b600060208201905081810360008301526118f081611683565b9050919050565b60006020820190508181036000830152611910816116a6565b9050919050565b60006020820190508181036000830152611930816116c9565b9050919050565b60006020820190508181036000830152611950816116ec565b9050919050565b600060208201905081810360008301526119708161170f565b9050919050565b6000602082019050818103600083015261199081611732565b9050919050565b600060208201905081810360008301526119b081611755565b9050919050565b600060208201905081810360008301526119d081611778565b9050919050565b600060208201905081810360008301526119f08161179b565b9050919050565b60006020820190508181036000830152611a10816117be565b9050919050565b6000602082019050611a2c60008301846117e1565b92915050565b6000602082019050611a4760008301846117f0565b92915050565b600081519050919050565b600082825260208201905092915050565b6000611a7482611b31565b9150611a7f83611b31565b9250827fffffffffffffffffffffffffffffffffffffffffffffffffffffffffffffffff03821115611ab457611ab3611bad565b5b828201905092915050565b6000611aca82611b31565b9150611ad583611b31565b925082821015611ae857611ae7611bad565b5b828203905092915050565b6000611afe82611b11565b9050919050565b60008115159050919050565b600073ffffffffffffffffffffffffffffffffffffffff82169050919050565b6000819050919050565b600060ff82169050919050565b60005b83811015611b66578082015181840152602081019050611b4b565b83811115611b75576000848401525b50505050565b60006002820490506001821680611b9357607f821691505b60208210811415611ba757611ba6611bdc565b5b50919050565b7f4e487b7100000000000000000000000000000000000000000000000000000000600052601160045260246000fd5b7f4e487b7100000000000000000000000000000000000000000000000000000000600052602260045260246000fd5b6000601f19601f8301169050919050565b7f45524332303a207472616e7366657220746f20746865207a65726f206164647260008201527f6573730000000000000000000000000000000000000000000000000000000000602082015250565b7f45524332303a206275726e20616d6f756e7420657863656564732062616c616e60008201527f6365000000000000000000000000000000000000000000000000000000000000602082015250565b7f4f776e61626c653a206e6577206f776e657220697320746865207a65726f206160008201527f6464726573730000000000000000000000000000000000000000000000000000602082015250565b7f45524332303a20617070726f766520746f20746865207a65726f20616464726560008201527f7373000000000000000000000000000000000000000000000000000000000000602082015250565b7f21436f6e74726f6c6c6572000000000000000000000000000000000000000000600082015250565b7f45524332303a20696e73756666696369656e7420616c6c6f77616e6365000000600082015250565b7f45524332303a207472616e7366657220616d6f756e742065786365656473206260008201527f616c616e63650000000000000000000000000000000000000000000000000000602082015250565b7f4e6f7420416c6c6f77656420546f205472616e736665722046756e6473000000600082015250565b7f4f776e61626c653a2063616c6c6572206973206e6f7420746865206f776e6572600082015250565b7f45524332303a206275726e2066726f6d20746865207a65726f2061646472657360008201527f7300000000000000000000000000000000000000000000000000000000000000602082015250565b7f45524332303a207472616e736665722066726f6d20746865207a65726f20616460008201527f6472657373000000000000000000000000000000000000000000000000000000602082015250565b7f45524332303a20617070726f76652066726f6d20746865207a65726f2061646460008201527f7265737300000000000000000000000000000000000000000000000000000000602082015250565b7f45524332303a2064656372656173656420616c6c6f77616e63652062656c6f7760008201527f207a65726f000000000000000000000000000000000000000000000000000000602082015250565b7f45524332303a206d696e7420746f20746865207a65726f206164647265737300600082015250565b611fb981611af3565b8114611fc457600080fd5b50565b611fd081611b31565b8114611fdb57600080fd5b5056fea26469706673582212203e93745a152bc66393725b5435514ff725f5de90e5e4fe9dcb5f890ee76ede4e64736f6c63430008040033",
  "linkReferences": {},
  "deployedLinkReferences": {}
}